:1000000000000320D90400002105000025050000A0
:100010001D0500001D0500001D050000000000007A
:10002000000000000000000000000000C1DD000032
:100030001D05000000000000C1DF000021E00000FD
:1000400035050000390500003D05000041050000B0
:1000500045050000490500004D0500005105000060
:1000600055050000590500005D0500006105000010
:1000700065050000690500006D05000071050000C0
:10008000750500001D0500001D0500001D05000090
:100090001D0500001D0500001D0500001D050000D8
:1000A000790500007D050000810500008505000040
:1000B000890500008D0500009105000095050000F0
:1000C000990500009D050000A1050000A5050000A0
:1000D000A9050000AD050000B10500001D050000E8
:1000E0001D0500001D0500001D0500001D05000088
:1000F0001D0500001D0500001D0500001D05000078
:100100001D0500001D0500001D0500001D05000067
:100110001D0500001D0500001D0500001D05000057
:100120001D0500001D0500001D0500001D05000047
:100130001D0500001D0500001D0500001D05000037
:100140001D050000B5050000B9050000BD05000053
:10015000C1050000C50500001D0500001D050000CB
:100160001D0500001D050000C9050000CD050000AB
:10017000D1050000D5050000D9050000DD0500000F
:10018000E1050000E5050000DD1E0100891E0100FB
:10019000A51E0100C11E01001D0500001D05000077
:1001A0001D0500001D0500001D0500001D050000C7
:1001B0001D0500001D0500001D0500001D050000B7
:1001C0001D0500001D0500001D0500001D050000A7
:1001D0001D0500001D0500001D0500001D05000097
:1003F0001D0500001D0500001D050000FFFFFFFF9B
:10040000FFFFFFFFFFFFFFFFFFFFFFFFFEFFFFFFFD
:1004100010B5054C237833B9044B13B10448AFF33E
:1004200000800123237010BDD000FF1F00000000DA
:10043000C475010008B5064B1BB106480649AFF369
:1004400000800648036813B1054B03B1984708BD07
:1004500000000000C4750100D400FF1FC800FF1F8A
:1004600000000000154B002B08BF134B9D46A3F561
:10047000803A00218B460F461348144A121A13F093
:1004800011FB0F4B002B00D098470E4B002B00D0D8
:1004900098470020002104000D000D48002802D0DC
:1004A0000C48AFF3008013F0BFFA2000290002F0DF
:1004B000BBF813F0A5FA00BF0000080000000320FD
:1004C0000000000000000000D000FF1F04B6FF1F66
:1004D000000000000000000072B6094809490160F0
:1004E0000948804709490A4A0A4B9A42BEBF51F857
:1004F000040B42F8040BF8E762B607488047000097
:1005000008ED00E000000000DD250000EC750100B2
:100510000000FF1FCC00FF1F65040000FFF7FEBFB7
:1005200035480047354800473548004735480047BB
:1005300035480047354800473548004735480047AB
:10054000354800473548004735480047354800479B
:10055000354800473548004735480047354800478B
:10056000354800473548004735480047354800477B
:10057000354800473548004735480047354800476B
:10058000354800473548004735480047354800475B
:10059000354800473548004735480047354800474B
:1005A000354800473548004735480047354800473B
:1005B000354800473548004735480047354800472B
:1005C000354800473548004735480047354800471B
:1005D0003448004733480047324800473148004715
:1005E000304800473048004730480047304800470F
:1005F000304800473048004721050000250500002D
:10060000C1DD0000C1DF000021E000001D05000089
:100610001D0500001D0500001D0500001D05000052
:100620001D0500001D0500001D0500001D05000042
:100630001D0500001D0500001D0500001D05000032
:100640001D0500001D0500001D0500001D05000022
:100650001D0500001D0500001D0500001D05000012
:100660001D0500001D0500001D05000055230100AB
:100670001D050000812301001D050000AD230100C0
:100680001D050000D92301001D0500001D05000007
:10069000052401001D050000312401001D05000096
:1006A0001D0500001D0500001D0500001D050000C2
:1006B0001D0500001D0500001D05000081F0004122
:1006C00002E000BF83F0004330B54FEA41044FEA37
:1006D000430594EA050F08BF90EA020F1FBF54EAD2
:1006E000000C55EA020C7FEA645C7FEA655C00F06E
:1006F000E2804FEA5454D4EB5555B8BF6D420CDD3F
:100700002C4480EA020281EA030382EA000083EAC1
:10071000010180EA020281EA0303362D88BF30BD61
:1007200011F0004F4FEA01314FF4801C4CEA1131B7
:1007300002D0404261EB410113F0004F4FEA033316
:100740004CEA133302D0524263EB430394EA050FA1
:1007500000F0A780A4F10104D5F1200E0DDB02FA10
:100760000EFC22FA05F2801841F1000103FA0EF2A4
:10077000801843FA05F359410EE0A5F120050EF16A
:10078000200E012A03FA0EFC28BF4CF0020C43FA9B
:1007900005F3C01851EBE37101F0004507D54FF0A8
:1007A000000EDCF1000C7EEB00006EEB0101B1F5F8
:1007B000801F1BD3B1F5001F0CD349085FEA30003E
:1007C0004FEA3C0C04F101044FEA445212F5800F49
:1007D00080F09A80BCF1004F08BF5FEA500C50F1E6
:1007E000000041EB045141EA050130BD5FEA4C0CC9
:1007F000404141EB010111F4801FA4F10104E9D152
:1008000091F0000F04BF01460020B1FA81F308BF48
:100810002033A3F10B03B3F120020CDA0C3208DD14
:1008200002F1140CC2F10C0201FA0CF021FA02F1EF
:100830000CE002F11402D8BFC2F1200C01FA02F15F
:1008400020FA0CFCDCBF41EA0C019040E41AA2BF84
:1008500001EB0451294330BD6FEA04041F3C1CDA4C
:100860000C340EDC04F11404C4F1200220FA04F06C
:1008700001FA02F340EA030021FA04F345EA030116
:1008800030BDC4F10C04C4F1200220FA02F001FAD8
:1008900004F340EA0300294630BD21FA04F029465A
:1008A00030BD94F0000F83F4801306BF81F48011F3
:1008B0000134013D4EE77FEA645C18BF7FEA655C66
:1008C00029D094EA050F08BF90EA020F05D054EA38
:1008D000000C04BF1946104630BD91EA030F1EBF3D
:1008E0000021002030BD5FEA545C05D14000494141
:1008F00028BF41F0004130BD14F580043CBF01F534
:10090000801130BD01F0004545F0FE4141F4700119
:100910004FF0000030BD7FEA645C1ABF19461046F4
:100920007FEA655C1CBF0B46024650EA013406BFF5
:1009300052EA033591EA030F41F4002130BD00BFB4
:1009400090F0000F04BF0021704730B54FF4806471
:1009500004F132044FF000054FF0000150E700BFF2
:1009600090F0000F04BF0021704730B54FF4806451
:1009700004F1320410F0004548BF40424FF000013E
:100980003EE700BF42004FEAE2014FEA31014FEA81
:1009900002701FBF12F07F4393F07F4F81F06051D0
:1009A000704792F0000F14BF93F07F4F704730B53F
:1009B0004FF4607401F0004521F0004120E700BFD2
:1009C00050EA010208BF704730B54FF000050AE059
:1009D00050EA010208BF704730B511F0004502D55A
:1009E000404261EB41014FF4806404F132045FEA5C
:1009F000915C3FF4DCAE4FF003025FEADC0C18BF01
:100A000003325FEADC0C18BF033202EBDC02C2F1F6
:100A1000200300FA03FC20FA02F001FA03FE40EA88
:100A20000E0021FA02F11444C1E600BF70B54FF088
:100A3000FF0C4CF4E06C1CEA11541DBF1CEA13556A
:100A400094EA0C0F95EA0C0F00F0DEF82C4481EAD2
:100A5000030621EA4C5123EA4C5350EA013518BFF2
:100A600052EA033541F4801143F4801338D0A0FBDF
:100A700002CE4FF00005E1FB02E506F00042E0FB8C
:100A800003E54FF00006E1FB03569CF0000F18BF92
:100A90004EF0010EA4F1FF04B6F5007F64F540743A
:100AA00004D25FEA4E0E6D4146EB060642EAC621CD
:100AB00041EA55514FEAC52040EA5E504FEACE2E3A
:100AC000B4F1FD0C88BFBCF5E06F1ED8BEF1004F3D
:100AD00008BF5FEA500E50F1000041EB045170BDB9
:100AE00006F0004646EA010140EA020081EA0301FD
:100AF000B4EB5C04C2BFD4EB0C0541EA045170BDF9
:100B000041F480114FF0000E013C00F3AB8014F172
:100B1000360FDEBF002001F0004170BDC4F10004BB
:100B2000203C35DA0C341BDC04F11404C4F120053C
:100B300000FA05F320FA04F001FA05F240EA020097
:100B400001F0004221F0004110EBD37021FA04F6CD
:100B500042EB06015EEA430E08BF20EAD37070BD87
:100B6000C4F10C04C4F1200500FA04F320FA05F0E6
:100B700001FA04F240EA020001F0004110EBD370E8
:100B800041F100015EEA430E08BF20EAD37070BD58
:100B9000C4F1200500FA05F24EEA020E20FA04F331
:100BA00001FA05F243EA020321FA04F001F00041E0
:100BB00021FA04F220EA020000EBD3705EEA430E51
:100BC00008BF20EAD37070BD94F0000F0FD101F080
:100BD0000046400041EB010111F4801F08BF013CB9
:100BE000F7D041EA060195F0000F18BF704703F0F7
:100BF0000046520043EB030313F4801F08BF013D7E
:100C0000F7D043EA0603704794EA0C0F0CEA135539
:100C100018BF95EA0C0F0CD050EA410618BF52EAF3
:100C20004306D1D181EA030101F000414FF00000F9
:100C300070BD50EA410606BF1046194652EA430607
:100C400019D094EA0C0F02D150EA013613D195EA7B
:100C50000C0F05D152EA03361CBF104619460AD1C3
:100C600081EA030101F0004141F0FE4141F47001CD
:100C70004FF0000070BD41F0FE4141F4780170BDBD
:100C800070B54FF0FF0C4CF4E06C1CEA11541DBF22
:100C90001CEA135594EA0C0F95EA0C0F00F0A7F824
:100CA000A4EB050481EA030E52EA03354FEA013151
:100CB00000F088804FEA03334FF0805545EA131364
:100CC00043EA12634FEA022245EA111545EA10652C
:100CD0004FEA00260EF000419D4208BF964244F1C3
:100CE000FD0404F5407402D25B084FEA3202B61AE2
:100CF00065EB03055B084FEA32024FF480104FF4B6
:100D0000002CB6EB020E75EB030E22BFB61A754629
:100D100040EA0C005B084FEA3202B6EB020E75EBBC
:100D2000030E22BFB61A754640EA5C005B084FEA24
:100D30003202B6EB020E75EB030E22BFB61A7546F1
:100D400040EA9C005B084FEA3202B6EB020E75EBFC
:100D5000030E22BFB61A754640EADC0055EA060EBD
:100D600018D04FEA051545EA16754FEA06164FEA00
:100D7000C30343EA52734FEAC2025FEA1C1CC0D1AC
:100D800011F4801F0BD141EA00014FF000004FF039
:100D9000004CB6E711F4801F04BF01430020B4F1FA
:100DA000FD0C88BFBCF5E06F3FF6AFAEB5EB030CB2
:100DB00004BFB6EB020C5FEA500C50F1000041EBAF
:100DC000045170BD0EF0004E4EEA113114EB5C047C
:100DD000C2BFD4EB0C0541EA045170BD41F480114F
:100DE0004FF0000E013C90E645EA060E8DE60CEA57
:100DF000135594EA0C0F08BF95EA0C0F3FF43BAF74
:100E000094EA0C0F0AD150EA01347FF434AF95EA2A
:100E10000C0F7FF425AF104619462CE795EA0C0F0E
:100E200006D152EA03353FF4FDAE1046194622E7DB
:100E300050EA410618BF52EA43067FF4C5AE50EAB5
:100E400041047FF40DAF52EA43057FF4EBAE12E7A5
:100E50004FF0FF3C06E000BF4FF0010C02E000BF86
:100E60004FF0010C4DF804CD4FEA410C7FEA6C5C69
:100E70004FEA430C18BF7FEA6C5C1BD001B050EA0C
:100E8000410C0CBF52EA430C91EA030F02BF90EAF7
:100E9000020F0020704710F1000F91EA030F58BFB6
:100EA000994208BF90422CBFD8176FEAE37040F018
:100EB000010070474FEA410C7FEA6C5C02D150EAB6
:100EC000013C07D14FEA430C7FEA6C5CD6D152EA71
:100ED000033CD3D05DF8040B704700BF8446104636
:100EE00062468C461946634600E000BF01B5FFF735
:100EF000B7FF002848BF10F1000F01BD4DF808ED05
:100F0000FFF7F4FF0CBF012000205DF808FB00BFD5
:100F10004DF808EDFFF7EAFF34BF012000205DF82F
:100F200008FB00BF4DF808EDFFF7E0FF94BF01207C
:100F300000205DF808FB00BF4DF808EDFFF7CEFF7D
:100F400094BF012000205DF808FB00BF4DF808EDBC
:100F5000FFF7C4FF34BF012000205DF808FB00BF8D
:100F60004FEA410212F5001215D211D56FF47873D1
:100F7000B3EB625212D94FEAC12343F0004343EA74
:100F8000505311F0004F23FA02F018BF404270474F
:100F90004FF00000704750EA013005D111F00040D9
:100FA00008BF6FF0004070474FF00000704700BF6F
:100FB00073B96AB9002908BF0028BCBF00204FF0F0
:100FC0000041C4BF6FF000414FF0FF3000F08CB81B
:100FD00082B0EC462DE9005000F056F8DDF804E050
:100FE00002B00CBC704700BF4BB942B9002908BF22
:100FF000002802D04FF0FF31084600F075B882B0EB
:10100000EC462DE9005000F057F8DDF804E002B09E
:101010000CBC704738B50022002304460D46FFF78C
:1010200077FF28B920462946BDE8384000F00AB8C5
:10103000204605F1004100F005F8404261EB410116
:1010400038BD00BF70B500220D4B04460D46FFF7BA
:10105000EDFC00F04BF80646FFF772FC0022094B4E
:10106000FFF7E4FC02460B4620462946FFF72AFB21
:1010700000F03CF8002242EA00042046314670BDF0
:101080000000F03D0000F0412DE97043069E14463B
:101090001D468046894600F049F804FB01F300FB39
:1010A0000533A4FB00451D44B8EB040469EB0505BA
:1010B000C6E90045BDE870832DE97043069E1446DD
:1010C000804689461D4600F07DF900FB05F504FBCE
:1010D0000153A0FB04451D44B8EB040469EB05056E
:1010E000C6E90045BDE87083704700BF4A0011D2D1
:1010F00012F5001211D20DD56FF47873B3EB625272
:101100000ED44FEAC12343F0004343EA505323FA7D
:1011100002F070474FF00000704750EA013002D1F2
:101120004FF0FF3070474FF00000704700292DE965
:10113000F00FC0F29F800024002BC0F2968015466D
:1011400006460F46002B3ED18A4257D9B2FA82F3A7
:101150004BB1C3F1200201FA03F720FA02F29D40DD
:10116000174300FA03F6290CB7FBF1F2330C01FB2D
:10117000127CA8B243EA0C4700FB02F3BB4209D938
:101180007F1902F1FF3C80F00181BB4240F2FE80FA
:10119000023A2F44FF1AB7FBF1F3B6B201FB137109
:1011A00046EA014100FB03F0884208D9491903F1DE
:1011B000FF3780F0ED80884240F2EA80023B43EA4C
:1011C0000242002303E08B420AD900231A4610464C
:1011D000194614B1404261EB4101BDE8F00F704780
:1011E000B3FA83F8B8F1000F40F084808B4202D349
:1011F000824200F2DE8000230122E8E712B90123D7
:10120000B3FBF2F5B5FA85F2002A39D17F1B280C21
:101210001FFA85FC0123B7FBF0F1320C00FB1177BC
:1012200042EA07470CFB01F2BA4207D97F1901F1E4
:10123000FF3802D2BA4200F2C1804146BF1AB7FB62
:10124000F0F2B6B200FB127046EA00400CFB02FC62
:10125000844507D9401902F1FF3702D2844500F2D4
:10126000AB803A4642EA0142B1E7E443524263EBC3
:10127000430364E7404261EB41014FF0FF345BE719
:101280009540C2F1200327FA03F1280C26FA03F354
:101290009740B1FBF0F81F433B0C00FB18111FFAFD
:1012A00085FC43EA01410CFB08F38B4206FA02F687
:1012B00008D9491908F1FF3279D28B4277D9A8F1C0
:1012C00002082944C91AB1FBF0F3BFB200FB1311A5
:1012D00047EA01470CFB03F2BA4207D97F1903F131
:1012E000FF3160D2BA425ED9023B2F44BF1A43EAB3
:1012F000084390E7C8F1200203FA08FC25FA02F33C
:1013000043EA0C0C4FEA1C4921FA02F301FA08F7F0
:1013100020FA02F2B3FBF9F1174309FB11333A0C3F
:101320001FFA8CFB42EA03430BFB01FA9A4505FACC
:1013300008F008D913EB0C0301F1FF3235D29A45BE
:1013400033D902396344CAEB0303B3FBF9F209FB57
:101350001233BFB247EA03470BFB02F9B94508D97C
:1013600017EB0C0702F1FF331BD2B94519D9023A2A
:10137000674442EA0145A5FB0001C9EB07078F421C
:101380004FF000030AD305D02A4620E7624601E762
:101390003B4614E706FA08F68642F5D26A1E002399
:1013A00015E71A46E5E70B46A0E71146CBE790465E
:1013B00088E7434642460AE7023A53E702392F4498
:1013C0003CE700BF2DE9F00F144605460E46002B02
:1013D00043D18A4253D9B2FA82F757B1C7F12006F6
:1013E00020FA06F601FA07F302FA07F41E4300FAA0
:1013F00007F5210CB6FBF1F22B0C01FB1267A0B232
:1014000043EA074600FB02F3B34209D9361902F159
:10141000FF3780F0F680B34240F2F380023A264470
:10142000F61AB6FBF1F3ADB201FB136145EA0141D7
:1014300000FB03F0884208D9091903F1FF3680F058
:10144000E280884240F2DF80023B43EA024200230E
:1014500010461946BDE8F00F70478B424AD8B3FAE0
:1014600083F6002E4DD18B4202D3824200F2D68009
:101470000023012210461946BDE8F00F704712B94B
:101480000124B4FBF2F4B4FA84F2002A7CD1091BE3
:10149000260CA7B20123B1FBF6F02A0C06FB1011B3
:1014A00042EA014107FB00F28A4207D9091900F11B
:1014B000FF3C02D28A4200F2C3806046891AB1FB27
:1014C000F6F2ADB206FB121145EA014507FB02F741
:1014D000AF4208D92C1902F1FF3180F09680A74263
:1014E00040F29380023A42EA004210461946BDE8B3
:1014F000F00F704700231A4610461946BDE8F00F5A
:101500007047C6F1200522FA05F4B3401C434FEAA8
:10151000144821FA05F301FA06F720FA05F5B3FBA2
:10152000F8FC2F4308FB1C333D0C1FFA84FA45EAF4
:1015300003430AFB0CF9994502FA06FB04D91B196F
:101540000CF1FF326DD39446C9EB0303B3FBF8F5FE
:1015500008FB1533BFB247EA03470AFB05F8B84555
:1015600004D93F1905F1FF3361D31D4645EA0C4C00
:10157000ACFB0B23C8EB07079F424FF0000549D394
:1015800045D062462B4663E79440C2F1200321FA1E
:1015900003FC260C20FA03F301FA02F5BCFBF6F873
:1015A00043EA05010B0C06FB18CCA7B243EA0C4C2E
:1015B00007FB08F3634500FA02F509D91CEB040C9C
:1015C00008F1FF323AD2634538D9A8F10208A444A1
:1015D000C3EB0C0CBCFBF6F389B206FB13CC41EA5F
:1015E0000C4107FB03F28A4207D9091903F1FF30C6
:1015F00022D28A4220D9023B2144891A43EA084375
:1016000049E73A460CE733461FE70A466BE7B04026
:101610009042B6D20CF1FF32002319E7334632462E
:1016200016E799458FD9ACF1020C23448CE7B845F5
:101630009BD9023D274499E70346DEE79046C7E77A
:10164000023821443AE700BF80B483B000AF78602D
:101650000B46FB70FB78002B08D07B68DB78DBB295
:1016600043F00803DAB27B68DA7007E07B68DB7866
:10167000DBB223F00803DAB27B68DA700C37BD46C0
:101680005DF8047B704700BF80B483B000AF786022
:101690000B46FB70FB78002B08D07B68DB78DBB255
:1016A00043F00403DAB27B68DA7007E07B68DB782A
:1016B000DBB223F00403DAB27B68DA700C37BD4684
:1016C0005DF8047B704700BF80B588B000AFF8605C
:1016D000B9603B601346FB711C4B1B78002B01D09B
:1016E00001232EE0194BFA791A70FB79012B27D1CF
:1016F000FA68164B5A6007F11403184610F066FD9D
:10170000BB687B61114B5A6807F1140310461946F8
:101710003A6810F033FC0D4B5B6818460121FFF767
:1017200093FF0A4B5B6818460121FFF7ADFF074B9B
:10173000074A9A60054B074ADA6000BF002300E0C1
:10174000042318462037BD4680BD00BFEC00FF1FB4
:1017500071220100B12201000FB480B582B000AF48
:101760000B4B1B78002B02D14FF0FF3309E007F140
:1017700014033B60074839693A6800F091FA7860D1
:101780007B6818460837BD46BDE8804004B0704706
:10179000EC00FF1F9917000080B582B000AF7860A1
:1017A0000A4B1B78002B02D14FF0FF3309E0074BA7
:1017B0009B68064A51683A1D08461146012298471F
:1017C000012318460837BD4680BD00BFEC00FF1F4F
:1017D00080B586B000AFB9607A603B600346FB73AA
:1017E000BB687B610CE097F90F203B6A1046984775
:1017F0003B681B685A1C3B681A607B6901337B613C
:101800007A697B689A42EEDB1837BD4680BD00BF1F
:1018100080B592B000AFF860B9607A603B60002399
:101820007B62FB683B623B6A5A1C3A6200221A7078
:101830007B68002B65D0BB68D3E90023C7E9102380
:10184000D7E9102352EA030107D13B6A30221A700C
:101850007B6A01337B627B6AC1E04CE03B681A46DD
:101860004FEAE273D7E91001FFF7A2FB02460B46ED
:10187000C7E906233B681A464FEAE273B96903FBDE
:1018800001F0F96902FB01F10144B869A0FB0223F0
:1018900019440B46D7E91001821A61EB0303C7E92B
:1018A0000E23D7E90E23002A73F100010FDAD7E9DE
:1018B0000E23C7E90A23D7E90A234FF030004FF07F
:1018C0000001821A61EB0303C7E90E2306E0D7E9A2
:1018D0000E23303243F10003C7E90E23D7E9062374
:1018E000C7E910233B6A5A1C3A6297F838201A70ED
:1018F0007B6A01337B62D7E9102352EA0301ADD141
:101900006CE0BB68D3E90023C7E90C23D7E90C23BB
:1019100052EA030107D13B6A30221A707B6A013315
:101920007B627B6A5BE054E03B681A464FEAE273F5
:10193000D7E90C01FFF758FB02460B46C7E9042321
:101940003B681A464FEAE273396903FB01F0796993
:1019500002FB01F101443869A0FB022319440B4644
:10196000D7E90C01821A61EB0303C7E90A23D7E91F
:101970000A23002B08BF0A2A07D2D7E90A233032EC
:1019800043F10003C7E90A2316E097F85030002B13
:1019900004D04FF041024FF0000303E04FF061022A
:1019A0004FF00003D7E90A01121843EB01030A3A8A
:1019B00043F1FF33C7E90A23D7E90423C7E90C231E
:1019C0003B6A5A1C3A6297F828201A707B6A0133E6
:1019D0007B62D7E90C2352EA0301A5D17B6A184642
:1019E0004837BD4680BD00BFB0B598B000AFF860C5
:1019F000B9607A603B600023FB63FB68BB63BB6B31
:101A00005A1CBA6300221A70BB68D3E90023C7E9E5
:101A10000C23D7E90C014FF000024FF00003FFF751
:101A20006DFA0346002B07D0BB6B30221A70FB6B9C
:101A30000133FB63FB6B23E107F1100397ED0C0B04
:101A4000184610F02BFE87ED100B00237B650FE08E
:101A50007868FEF785FF02460B46D7E91001FEF7CE
:101A6000E5FF02460B46C7E910237B6D01337B651A
:101A70007A6D3B689A42EBD3D7E90C014FF0000234
:101A80004FF00003FFF758FA0346002B2FD0D7E999
:101A900010014FF00002804BFEF716FE02460B4687
:101AA000C7E912233868FEF74BFF02460B469FED4D
:101AB000760B43EC112B10F043FE53EC102B104629
:101AC0001946D7E91223FFF72DFA0346002B00D160
:101AD0003BE0D7E90423104619464FF000026F4B54
:101AE000FEF7F2FD02460B46C7E904232DE0D7E9D5
:101AF00010014FF00002684BFEF7E4FD02460B4672
:101B0000C7E912233868FEF71BFF02460B469FED1C
:101B1000600B43EC112B10F013FE53EC102B10460E
:101B20001946D7E91223FFF707FA0346002B0CD01A
:101B3000D7E90423104619464FF00002574BFEF731
:101B4000C1FD02460B46C7E9042300237B654EE036
:101B50007868FEF705FF02460B46D7E91201FFF74A
:101B60008FF802460B46C7E90A23D7E90A01FFF7B7
:101B700051FA7B681A464FEAE27302FB01F500FB5B
:101B800003F42C44A0FB0223E1180B46104619462F
:101B9000FEF71EFF02460B46D7E91201FEF792FD43
:101BA00002460B46C7E90823D7E90801FFF7D8F931
:101BB0000346BB65BB6D002B06DABB6DFB61FB69A1
:101BC000C3F13003BB6502E0BB6D3033BB65D7E9C1
:101BD0000A23C7E91223BB6B5A1CBA63BA6DD2B28F
:101BE0001A70FB6B0133FB637B6D01337B657A6D90
:101BF0003B689A42ACD3BB6B5A1CBA632E221A7054
:101C0000FB6B0133FB63D7E9042310461946FFF74A
:101C1000A7F90346FB65FB6D002B08D1BB6B5A1C73
:101C2000BA6330221A70FB6B0133FB6327E023E0B9
:101C3000FA6D7B6892FBF3F3BB61BB697A6802FBC8
:101C400003F3FA6DD31ABB65BB6D002B06DABB6DCF
:101C5000FB61FB69C3F13003BB6502E0BB6D303350
:101C6000BB65BB69FB65BB6B5A1CBA63BA6DD2B26C
:101C70001A70FB6B0133FB63FB6D002BD8D1FB6B40
:101C800018466037BD46B0BD00000000000024408B
:101C900000000000000024C00000E03F0000F03F12
:101CA00080B5A4B002AFF860B9607A600023C7F8CD
:101CB00080300023FB670023FB62002387F86A3033
:101CC0004FF000024FF00003C7E90623BB68C7F8D6
:101CD000843000F027BCBB6D252B07D0FB68B86DA6
:101CE0009847FB6A0133FB6200F017BC012387F8B9
:101CF0006B3000237B660023BB6752E0D7F884304B
:101D00000133C7F88430D7F884301B785BB2203BAE
:101D1000102B3ED801A151F823F000BF751D000023
:101D2000931D0000931D0000891D0000931D0000FD
:101D3000931D0000931D0000931D0000931D0000E3
:101D4000931D0000931D00006B1D0000931D0000FB
:101D5000611D0000931D0000931D00007F1D000009
:101D60007B6E43F001037B661BE07B6E43F0020356
:101D70007B6616E07B6E43F004037B6611E07B6EAE
:101D800043F008037B660CE07B6E43F010037B6638
:101D900007E0D7F88430013BC7F884300123BB67E4
:101DA00000BFBB6F002BA9D000237B670023BB675C
:101DB00021E0D7F884300133C7F88430D7F8843075
:101DC0001B785BB2BB65BB6D2F2B0DDDBB6D392B5B
:101DD0000ADC7A6F13469B0013445B001A46BB6D06
:101DE0001344303B7B6706E0D7F88430013BC7F8EB
:101DF00084300123BB67BB6F002BDAD006233B671F
:101E0000D7F884300133C7F88430D7F884301B7892
:101E10005BB22E2B2AD100233B670023BB6721E056
:101E2000D7F884300133C7F88430D7F884301B7872
:101E30005BB2BB65BB6D2F2B0DDDBB6D392B0ADC97
:101E40003A6F13469B0013445B001A46BB6D134464
:101E5000303B3B6706E0D7F88430013BC7F884305D
:101E60000123BB67BB6F002BDAD004E0D7F88430C6
:101E7000013BC7F88430D7F884300133C7F8843089
:101E8000D7F884301B785BB2682B02D06C2B1AD049
:101E900033E0D7F884300133C7F88430D7F8843082
:101EA0001B785BB2682B09D07B6E43F040037B66E6
:101EB000D7F88430013BC7F8843024E07B6E43F0D0
:101EC00020037B661FE0D7F884300133C7F88430E5
:101ED000D7F884301B785BB26C2B09D07B6E43F053
:101EE00080037B66D7F88430013BC7F884300AE072
:101EF0007B6E43F480737B6605E0D7F88430013B4A
:101F0000C7F8843000BFD7F884300133C7F8843075
:101F1000D7F884301B785BB2BB65BB6D642B1BD0DC
:101F2000BB6D692B18D0BB6D662B15D0BB6D462BD6
:101F300012D0BB6D782B0FD0BB6D582B0CD0BB6D66
:101F40006F2B09D0BB6D622B06D0BB6D702B03D0FD
:101F5000BB6D752B40F08C82BB6D642B03D0BB6DC9
:101F6000692B40F095807B6E03F48073002B0BD0BF
:101F70007B68073323F0070303F108027A60D3E993
:101F80000023C7E9082308E07B681A1D7A601B68F4
:101F90001A464FEAE273C7E9082307F1300207F156
:101FA000200397F86B1000911046194601220A236E
:101FB000FFF72EFCF86707F13002FB6F1344C7F8F8
:101FC0008030D7E90823002A73F1000105DA2D23B8
:101FD0003B66FB6F0133FB6717E07B6E03F0020388
:101FE000002B05D02B233B66FB6F0133FB670CE016
:101FF0007B6E03F00403002B05D020233B66FB6FB0
:102000000133FB6701E000233B660023FB657B6E29
:1020100003F00803002B16D03B6E002B05D0FB68A5
:10202000386E9847FB6A0133FB620123FB657A6FC8
:1020300007F12C03F96800913020F96FFFF7C8FB16
:102040007B6FFB6718E07B6E03F00103002B13D15D
:102050007A6F07F12C03F96800912020F96FFFF7E0
:10206000B7FB3B6E002B05D0FB68386E9847FB6AC8
:102070000133FB620123FB65FB6D002B08D13B6E36
:10208000002B05D0FB68386E9847FB6A0133FB6272
:10209000BB6D662B03D0BB6D462B40F08A807B68FE
:1020A000073323F0070303F108027A60D3E9002322
:1020B000C7E9042307F1300207F11003104619465F
:1020C0000A223B6FFFF790FCF86707F13002FB6FC5
:1020D0001344C7F88030D7E90423104619464FF05F
:1020E00000024FF00003FEF713FF0346002B05D05C
:1020F0002D233B66FB6F0133FB6717E07B6E03F01C
:102100000203002B05D02B233B66FB6F0133FB67DB
:102110000CE07B6E03F00403002B05D020233B660C
:10212000FB6F0133FB6701E000233B660023FB6587
:102130007B6E03F00803002B16D03B6E002B05D0FE
:10214000FB68386E9847FB6A0133FB620123FB652D
:102150007A6F07F12C03F96800913020F96FFFF7CF
:1021600037FB7B6FFB6718E07B6E03F00103002BEE
:1021700013D17A6F07F12C03F96800912020F96FD1
:10218000FFF726FB3B6E002B05D0FB68386E9847A7
:10219000FB6A0133FB620123FB65FB6D002B08D159
:1021A0003B6E002B05D0FB68386E9847FB6A013305
:1021B000FB62BB6D582B03D0BB6D782B40F0A68023
:1021C000BB6D782B02D1002387F86B307B6E03F454
:1021D0008073002B0BD07B68073323F0070303F1D8
:1021E00008027A60D3E90023C7E9062308E07B6888
:1021F0001A1D7A601B681A464FF00003C7E90623D0
:1022000007F1300207F1180397F86B1000911046A0
:10221000194600221023FFF7FBFAF86707F1300296
:10222000FB6F1344C7F880300023FB657B6E03F01F
:102230000803002B22D07B6E03F01003002B11D07B
:10224000FB683020984797F86B30002B01D058235B
:1022500000E07823FA6818469047FB6A0233FB6275
:102260000123FB657A6F07F12C03F9680091302098
:10227000F96FFFF7ADFA7B6FFB672CE07B6E03F025
:102280000103002B27D17B6E03F01003002B02D03B
:10229000FB6F0233FB677A6F07F12C03F96800913B
:1022A0002020F96FFFF794FA7B6E03F01003002BE8
:1022B00011D0FB683020984797F86B30002B01D085
:1022C000582300E07823FA6818469047FB6A0233E7
:1022D000FB620123FB657B6E03F01003002B15D01E
:1022E000FB6D002B12D1FB683020984797F86B30BC
:1022F000002B01D0582300E07823FA681846904755
:10230000FB6A0233FB62FB6F0233FB67BB6D6F2B13
:102310000BD17B681A1D7A601B681A464FF00003C8
:10232000C7E90623082387F86A30BB6D622B11D1F9
:102330007B681A1D7A601B681A464FF00003C7E9D4
:102340000623022387F86A3007F13002FB6F13443B
:10235000C7F88030BB6D702B11D17B681A1D7A6075
:102360001B681A464FF00003C7E90623102387F8BD
:102370006A3007F13002FB6F1344C7F88030BB6D41
:10238000752B11D17B681A1D7A601B681A464FF0B5
:102390000003C7E906230A2387F86A3007F13002F1
:1023A000FB6F1344C7F88030BB6D6F2B08D0BB6D3B
:1023B000622B05D0BB6D702B02D0BB6D752B34D159
:1023C00097F86A3007F1300107F1180297F86B00AF
:1023D0000090084611460022FFF71AFAF86707F145
:1023E0003002FB6F1344C7F880307B6E03F00803A4
:1023F000002B0BD07A6F07F12C03F9680091302085
:10240000F96FFFF7E5F97B6FFB670EE07B6E03F07A
:102410000103002B09D17A6F07F12C03F9680091B1
:102420002020F96FFFF7D4F90DE00CE0D7F88030E9
:102430005A1EC7F880201B785AB2FB68104698478E
:10244000FB6A0133FB62D7F880301B78002BEDD19B
:102450007B6E03F00103002B09D07A6F07F12C0388
:10246000F96800912020F96FFFF7B2F955E054E0C8
:10247000BB6D632B0DD17B681A1D7A601B68DBB2C4
:102480005BB27B65FB68786D9847FB6A0133FB6242
:1024900043E0BB6D732B3AD17B681A1D7A601B68D1
:1024A000FB66FB6E002B38D0F86E11F01BFB034669
:1024B000FB677B6E03F00103002B09D17A6F07F1F4
:1024C0002C03F96800912020F96FFFF781F90BE0E8
:1024D0000AE0FB6E5A1CFA661B785AB2FB6810467B
:1024E0009847FB6A0133FB62FB6E1B78002BF0D12F
:1024F0007B6E03F00103002B0FD07A6F07F12C03E2
:10250000F96800912020F96FFFF762F905E0FB6898
:10251000B86D9847FB6A0133FB62D7F8843001330A
:10252000C7F88430D7F884301B785BB2BB65BB6DCD
:10253000002B7FF4D0ABFB6A18468837BD4680BDC0
:1025400080B584B000AFF860B9607A60BB68002BDA
:1025500002D14FF0FF3318E0FB68012B05D0FB6878
:10256000022B02D04FF0FF330FE00A4B1B78002BF9
:1025700002D14FF0FF3308E0064B9B68054A5168D3
:102580007A680846B96898477B6818461037BD4690
:1025900080BD00BFEC00FF1F80B584B000AFF860C5
:1025A000B9607A60FB68002B02D04FF0FF330FE078
:1025B000094B1B78002B02D14FF0FF3308E0064B8C
:1025C000DB68054A51687A680846B96898477B68AD
:1025D00018461037BD4680BDEC00FF1F80B400AF29
:1025E0000B4B0B4AD2F8882042F47002C3F88820C3
:1025F000084B4CF22052DA81064B4DF62812DA8154
:10260000044B4FF4E9721A80BD465DF8047B7047B5
:1026100000ED00E00020054080B582B000AF78609A
:1026200000200CF079FCFBE790B599B004AF644B47
:10263000BB64BB6C1B6823F00102BB6C1A600FF01B
:10264000B1FF0FF02BFF0FF0F9FE0023BB6000235A
:102650007B6000233B6007F10C0007F108013A1D85
:102660003B4600240094574C0194574C029404F0CC
:10267000A9F807F10C03184604F086F907F10C03DA
:10268000184602F0C3FC034687F8473097F94730F5
:1026900018460AF0F7FB03464C484D491A4611F01C
:1026A00009FA0023FB640DE0FB6A1B7B494848499B
:1026B0001A4611F0FFF94FF47A700CF0DBFBFB6C5B
:1026C0000133FB64FB6C092B03DCFB6A1B7B0A2BCD
:1026D000EAD1414811F0EEF907F10C03184604F075
:1026E00061F9FB6A1B7B3D4839491A4611F0E2F952
:1026F00007F10C030433184601F058FD034638482F
:1027000033491A4611F0D6F907F10C03083318467D
:1027100001F04CFD034633482D491A4611F0CAF921
:1027200007F10C030C33184601F040FD03462E4818
:1027300027491A4611F0BEF9FB6A1B7B0A2B2DD1E3
:1027400020200021002209F0D5FB3864386C27498D
:1027500043F2390209F028FC034687F8473097F91D
:10276000473018460AF08EFB0346214818491A469E
:1027700011F0A0F9386C1F4943F23A0209F048FC05
:10278000034687F8473097F9473018460AF07AFB36
:10279000034619480E491A4611F08CF9112300938B
:1027A0000023019300230293002303931348144949
:1027B0005A2200230CF08EFA0CF036FC00BFFDE725
:1027C00000D0004005D300006935000090480100AA
:1027D000F8710100B0480100D0480100E048010054
:1027E000FC48010008490100144901001072010071
:1027F00020490100147201004C4901001926000013
:102800008449010080B582B000AF786041497A68A0
:1028100013469B0013449B000B441B68002B13D0F2
:102820003C497A6813469B0013449B000B441B6889
:10283000184604F0CDFB37497A6813469B001344D1
:102840009B000B4400221A6032497A6813469B00B1
:1028500013449B000B44103300229A702D497A6870
:1028600013469B0013449B000B4410330022DA7084
:1028700028497A6813469B0013449B000B44083395
:1028800000221A6023497A6813469B0013449B0078
:102890000B4400225A601F497A6813469B00134478
:1028A0009B000B44083300221A711A497A681346B8
:1028B0009B0013449B000B44093300221A711549F5
:1028C0007A6813469B0013449B000B440A33002292
:1028D0001A7110497A6813469B0013449B000B44FD
:1028E0000B3300221A710B497A6813469B0013447C
:1028F0009B000B440C3300221A7106497A68134678
:102900009B0013449B000B440D3300221A710837BF
:10291000BD4680BDFC00FF1F80B586B000AF78606B
:102920000B46FB700A23FB750A23BB750A237B75D4
:1029300000233B750023FB740023BB740A237B74C4
:1029400000233B7400233B758DE03A7D8349134699
:102950009B0013449B000B4410339B78FB7397F947
:1029600015300A2B05D1FB7B002B02D13B7D7B75FB
:1029700076E0FB7B002B73D0FB7B012B05D0FB7B30
:10298000012B02D876480AF093FE7B68002B0DD00D
:102990007B6819683A7D714813469B0013449B007D
:1029A00003445B68994201D13B7DD1E0FB7B012B65
:1029B0003BD13A7D694913469B0013449B000B446D
:1029C0001B68002B18D03A7D644913469B001344C2
:1029D0009B000B441033DB783A7C9A4240D83B7D15
:1029E0007B743A7D5D4913469B0013449B000B4466
:1029F0001033DB783B7433E03A7D584913469B0033
:102A000013449B000B441033DB78FA7C9A4227D89E
:102A10003B7DFB753A7D514913469B0013449B0057
:102A20000B441033DB78FB741AE0FB7B012B17D9C6
:102A30003A7D4A4913469B0013449B000B441033D4
:102A4000DB78BA7C9A420BD83B7DBB753A7D434913
:102A500013469B0013449B000B441033DB78BB747C
:102A60003B7D01333B753B7D092B7FF66EAFFB78D9
:102A700003F00203002B08D197F915300A2B06D179
:102A8000FB7803F00103002B01D1FF2360E097F9ED
:102A90001530092B02DC7B7D3B752DE097F9163054
:102AA000092B0FDCBB7D3B753A7D2C4913469B00FF
:102AB00013449B000B441B68002B13D029480AF0D9
:102AC000F7FD0FE097F91730092B02DCFB7D3B7512
:102AD00008E097F91130092B02DC7B7C3B7501E0A3
:102AE000FF2335E03B7D092B02D91F480AF0E0FDAA
:102AF0003B7D1846FFF786FE3B7D092B02D91A481D
:102B00000AF0D6FD3A7D154913469B0013449B00FD
:102B10000B4410339B78002B02D014480AF0C8FDF8
:102B20007B68002B09D03A7D7B6819680B481346F7
:102B30009B0013449B00034459603A7D07491346A8
:102B40009B0013449B000B4410330022DA703B7D42
:102B50005BB218461837BD4680BD00BFFC00FF1FA2
:102B600090490100D0490100E8490100FC490100F9
:102B700080B586B000AFF860B9607A603B60BB6832
:102B80005B687B61FB6893F82630062B02D0104807
:102B90000AF08EFD7B6918463968062210F079FF2D
:102BA0007B69063318467968062210F072FF7B694C
:102BB000002242F008021A7300225A73FB689B69D4
:102BC000F868B9689847034618461837BD4680BD6F
:102BD000284A010080B586B000AFF860B9607A601D
:102BE000FB70FB6893F82630062B02D044480AF0AD
:102BF0005FFDBB68002B12D0BB681B68002B0ED09A
:102C0000BB681B681846F96801F094FA0346002B6C
:102C100005D1BB681B6803F0F003E02B01D1F22360
:102C200068E0FB78B8681946FFF776FE0346FB7547
:102C300097F91730002B01DAFB7D5BE097F917203D
:102C4000304913469B0013449B000B44103302226F
:102C50009A7097F917202B4913469B0013449B0049
:102C60000B440833FA681A6097F9172013469B0043
:102C700013449B0003F10802224B1344043318460B
:102C80007968062210F005FF97F917201D491346B1
:102C90009B0013449B000B4410330022DA7097F919
:102CA0001720184913469B0013449B000B441B68D4
:102CB000002B1ED097F91720124913469B0013448E
:102CC0009B000B441B683B6197F917200D49134685
:102CD0009B0013449B000B4400221A60FB682733BF
:102CE000F86839691A467B68FFF742FF386904F0D3
:102CF0006FF900235BB218461837BD4680BD00BF90
:102D00006C4A0100FC00FF1F80B584B000AF786002
:102D10000023FB731FE0FA7B124913469B00134408
:102D20009B000B4410339B78BB73BB7B002B0FD0F5
:102D3000FA7B0C4913469B0013449B000B44083359
:102D40001A687B689A4203D1FB7B1846FFF75AFD4D
:102D5000FB7B0133FB73FB7B092BDCD91037BD46B2
:102D600080BD00BFFC00FF1F80B58AB000AFF860D7
:102D7000B9607A60FB68002B03D167480AF098FCC1
:102D8000C6E07B685B89292B03D8786804F020F9BA
:102D9000BEE07B685B683B623B6A0E33FB61FB69AC
:102DA0001B889BB2B3F5807F0CD1FB691B79062B86
:102DB00008D1FB695B79042B04D1FB695B889BB26A
:102DC000082B03D0786804F003F9A1E0FB690E3307
:102DD00007F1180210461946042210F05AFEFB694A
:102DE000183307F1140210461946042210F051FE60
:102DF000FB680433002B03D0FB685B68002B03D116
:102E0000002387F8273009E07A69FB685B689A42FB
:102E100014BF00230123DBB287F82730FB6903F1DD
:102E2000080297F82730002B01D0012300E002238D
:102E300007F11801F868FFF7CDFEFB69DB889BB24C
:102E4000B3F5807F03D0B3F5007F57D05DE097F8EE
:102E50002730002B48D0022001F024FF03461A46F9
:102E6000FB69DA80FB6903F11802FB690E33104637
:102E70001946042210F00DFEFB6903F10E02FB68F7
:102E8000043310461946042210F003FEFB6893F841
:102E90002630062B02D021480AF00AFCFB6903F118
:102EA0001202FB69083310461946062210F0F1FDA4
:102EB0003A6AFB69083310461946062210F0E9FD0C
:102EC000FB6908331846B968062210F0E2FD3B6A38
:102ED00006331846B968062210F0DBFDFB689B69D3
:102EE000F8687968984708E0FB680433002B03D042
:102EF000FB685B68002B00D100BF06E007F11803F8
:102F0000F868194602F028F900BF786804F060F804
:102F10002837BD4680BD00BFB84A0100284A0100DD
:102F200090B585B000AFF860B9601346FB71FA79CF
:102F3000294913469B0013449B000B4410339B7894
:102F4000012B02D825480AF0B3FBFA79224913462F
:102F50009B0013449B000B4410339B78022B23D11E
:102F6000FA791D4913469B0013449B000B44103310
:102F7000DB78E32B18D9FA7913469B0013449B00A6
:102F8000154A13440433F868194600F0CBFA034697
:102F9000002B09D1FA79104913469B0013449B007A
:102FA0000B44103303229A70FB6803F12704FA796B
:102FB00013469B0013449B0003F10802064B134485
:102FC0000433F868B9682246FFF7D2FD0346184675
:102FD0001437BD4690BD00BFFC00FF1FC84A01006A
:102FE00080B588B000AFF860B9607A607B68BB617B
:102FF000FB68002B02D163480AF05AFBBB68002B28
:1030000002D161480AF054FB7B68002B02D15F4873
:103010000AF04EFBB8680E2103F05AFF0346002B5E
:1030200001D0FE23A9E07B681B681846F96801F00F
:1030300081F80346002B02D0554BFB6194E07B687E
:103040001B6803F0F003E02B16D101233B7400232F
:103050007B745E23BB747B6801331B7803F07F03B2
:10306000DBB2FB747B689B783B757B68DB787B7598
:1030700007F11003FB6177E07B681A68FB685B6807
:103080005A40FB689B681340002B14D07B681B6878
:103090009AB24FF6A9639A420DD0FB680C33002B0D
:1030A00007D0FB68DB68002B03D0FB680C33BB61E7
:1030B00001E0FC2361E0374B1B781A463649134682
:1030C0009B0013449B000B4410339B78012B16D9B3
:1030D000BB6919682F4B1B781A462F4813469B0073
:1030E00013449B0003445B68994208D1294B1B7829
:1030F000F868B9681A46FFF713FF03463DE000235E
:10310000FB7526E097F91720234913469B001344CB
:103110009B000B4410339B78012B17D9BB691968AE
:1031200097F917201C4813469B0013449B00034447
:103130005B6899420AD1FA7D164B1A70FB7DF868DC
:10314000B9681A46FFF7ECFE034616E0FB7D013333
:10315000FB7597F91730092BD4DDF868B969BA689F
:1031600000F01CF8034608E0FB682733F868B968EC
:103170001A46FB69FFF7FCFC03465BB21846203792
:10318000BD4680BDB84A0100F84A0100044B010069
:1031900000720100C401FF1FFC00FF1F80B58AB050
:1031A00000AFF860B9607A60FB682733BB61FF232A
:1031B00087F82730BB681B681846F96800F0BAFF2B
:1031C0000346002B0CD1BB681B6803F0F003E02B17
:1031D00006D0BB68002B03D0BB681B68002B01D155
:1031E000F223FAE0B8680121FFF796FB0346FB756E
:1031F00097F91730002B01DAFB7DEEE097F91720E5
:10320000784913469B0013449B000B4410339B7872
:10321000002B0AD197F91720724913469B001344DB
:103220009B000B44103301229A7097F917206D49C7
:1032300013469B0013449B000B4410339B78012BD7
:103240000ED097F91720674913469B0013449B0043
:103250000B4410339B78012B02D863480AF028FAFC
:1032600097F917205F4913469B0013449B000B44BA
:1032700010339B78012B02D07B68002B0CD1F868AF
:10328000B96800F04FF9034687F827307B68002BB8
:1032900002D197F82730A0E07B68002B02D1534879
:1032A0000AF006FA97F917204E4913469B0013447B
:1032B0009B000B4410339B78012B16D9FA7D4C4BA5
:1032C0001A7097F9172013469B0013449B0003F1D3
:1032D0000802444B13440433F8687968BA69FFF76D
:1032E00047FC034687F8273075E097F917203D49DA
:1032F00013469B0013449B000B4410339B78012B17
:1033000069D10023FB617B683B6216E03B6A5A8906
:103310003B6A1B899A4206D13B6A1B68002B02D08C
:1033200034480AF0C5F93B6A1B7B012B02D001230C
:10333000FB6105E03B6A1B683B623B6A002BE5D101
:10334000FB69002B17D03B6A1B890320194600221A
:1033500003F076FB38623B6A002B11D0386A79683B
:1033600003F036FF0346002B0AD0386A03F030FE24
:1033700000233B6204E07B683B62386A03F0C0FED6
:103380003B6A002B24D097F91720164913469B005F
:1033900013449B000B441B68002B0BD097F917209C
:1033A000104913469B0013449B000B441B681846AE
:1033B00003F00EFE97F917200A4913469B001344A9
:1033C0009B000B443A6A1A60002387F8273002E01A
:1033D000FF2387F8273097F827305BB21846283745
:1033E000BD4680BDFC00FF1F144B0100F84A0100E0
:1033F000C401FF1F3C4B010080B588B000AFF860EE
:10340000B9607A603B600023FB77FB68002B02D138
:1034100041480AF04DF903202A21002203F010FB55
:10342000B861BB69002B01D1FF236FE0BB695B89E9
:10343000292B02D839480AF03BF9BB695B687B61EC
:103440007B690E333B61BB8E184601F02BFC0346B3
:103450001A463B69DA80FB6893F82630062B02D0C7
:103460002F480AF025F93B690833184639680622C7
:1034700010F00FFB3B6912331846F96A062210F070
:1034800008FB7B6918467968062210F002FB7B690D
:1034900006331846B968062210F0FBFA3B690E3372
:1034A0001846B96A042210F0F4FA3B69183318463A
:1034B000396B042210F0EDFA3B6900221A700022E9
:1034C00042F001025A703B69002242F008029A70F1
:1034D0000022DA703B6906221A713B6904225A7194
:1034E0007B69002242F008021A73002242F00602B1
:1034F0005A73FB689B69F868B96998470346FB777C
:10350000B86903F065FD0023BB61FB7F5BB2184621
:103510002037BD4680BD00BFB84A0100584B0100AE
:10352000284A010080B586B004AF786039607B68B6
:1035300003F127027B682733796804310091084939
:103540000191396802910121039178681146054A79
:10355000FFF752FF034618460837BD4680BD00BF3F
:10356000087201000072010080B586B000AF78607B
:1035700039600E23FB827B685B890E2B00D868E0E4
:103580007B685B683B613B691A7B5B7B1B02134377
:10359000FB813B691B7803F00103002B23D03B69BF
:1035A0001B78012B0FD13B695B78002B1BD13B694A
:1035B0009B785E2B17D17B685B7B43F01003DAB2FC
:1035C0007B685A730FE03B6918462649062210F0C3
:1035D00051FA0346002B06D17B685B7B43F008035E
:1035E000DAB27B685A73FB89082B03D0B3F5C16F3D
:1035F0001DD02EE03B6893F82D3003F02003002B04
:1036000000D126E0FB8A5B429BB29BB21BB278687A
:10361000194603F05DFC0346002B03D012480AF064
:1036200047F816E07868396800F040FB0FE03B6827
:1036300093F82D3003F02003002B00D109E03B6804
:103640002733386819467A68FFF78EFB00BF0023DE
:1036500003E0786803F0BCFC00235BB2184618371F
:10366000BD4680BD007201008C4B010080B58CB05E
:1036700004AF786039607B685B68FB61FB691B782D
:1036800003F00F039BB29B009BB2FB82FB8A5B4261
:103690009BB29BB21BB27868194603F019FC034633
:1036A000002B03D17B681B89032B00D8E9E07B68E2
:1036B0005B681B787B757B685B685B783B757B7DA3
:1036C000002B00F0D980082B00D0D6E00123BB618D
:1036D000714B1B6803F0F003E02B01D10023BB61A9
:1036E0006D4B1B681846396800F024FD0346002B1B
:1036F00001D00023BB61BB69002B03D1786803F0C4
:1037000067FCC6E07B681B89072B00D8B9E07868A6
:1037100000F044FA0346002B03D0786803F058FC0D
:10372000B7E07868222103F0D3FB0346002B47D093
:10373000B7F916307868194603F0CAFB0346002B28
:1037400003D0564809F0B4FF9FE07B681B89022034
:103750001946002203F074F938613B69002B00D14F
:1037600093E03B695B891A46B7F9163008339A42F1
:1037700002D24B4809F09CFF3869796803F028FDB4
:103780000346002B03D0474809F092FF7DE03B69D8
:103790005B68FB61FB8A5B429BB29BB21BB23869E0
:1037A000194603F095FB0346002B03D03E4809F071
:1037B0007FFF6AE0786803F00BFC3B697B600BE0FD
:1037C00078686FF0210103F083FB0346002B03D0E0
:1037D000354809F06DFF58E07B685B68FB602E4B55
:1037E0001A68FB69DA60314B1A68FB691A61FB6879
:1037F00000221A70FB685B889AB24FF6F6739A4201
:1038000007D9FB685B889BB209339AB2FB685A8080
:1038100006E0FB685B889BB208339AB2FB685A806B
:10382000FB69FF221A72FB6900229A720022DA7287
:10383000F869142100F0A0F903461A46FB695A8181
:10384000B7F916307868194603F042FB0346002B9F
:1038500003D0174809F02CFF0DE00023009301234B
:1038600001933B68029378680B490022FF2300F024
:1038700051FB0346FB7200E000BF786803F0A8FB31
:1038800007E0786803F0A4FB03E0786803F0A0FB8E
:1038900000BF2037BD4680BDD401FF1FB04B0100E3
:1038A000E44B01001C4C0100444C0100D001FF1FFF
:1038B000784C010080B582B000AF78600B46FB7099
:1038C000FB78786803211A4600F014F80837BD46E3
:1038D00080BD00BF80B582B000AF78600B46FB7042
:1038E000FB7878680B211A4600F004F80837BD46CB
:1038F00080BD00BF80B588B002AF786013460A462D
:10390000FA70BB7001202421002203F099F878613D
:103910007B69002B48D07B695B89232B02D8244824
:1039200009F0C6FE7B685B683B617B695B68FB6096
:10393000FB68FA781A70FB68BA785A70FB68002244
:103940001A7100225A71FB6800229A710022DA7102
:103950007B695B6803F108027B685B681046194667
:103960001C2210F096F8FB6800229A700022DA7090
:103970007B695B89F868194600F0FEF803461A4631
:10398000FB685A803B69DB68BB6007F108030022D3
:10399000009201220192786900211A46FF2300F06B
:1039A0009BFB786903F014FB1837BD4680BD00BF50
:1039B0009C4C010080B489B000AF786039607B68AE
:1039C000FB610023FB8100237B61FB6903F00103A2
:1039D0003B613B69002B0DD03B68002B0ADD07F1F2
:1039E0000E030133FA69511CF96112781A703B68B1
:1039F000013B3B60FB69BB6109E0BB699A1CBA6192
:103A00001B887A6913447B613B68023B3B603B68DF
:103A1000012BF2DC3B68002B04DD07F10E03BA69D1
:103A200012781A70FB897A6913447B617B691A0CDE
:103A30007B699BB213447B617B691A0C7B699BB2E7
:103A400013447B613B69002B08D07B691B029AB24F
:103A50007B6903F47F431B0A13437B617B699BB241
:103A600018462437BD465DF8047B704780B588B0A2
:103A700000AFF860B9607A60FB700023FB6100233F
:103A8000FB75FB68BB6128E0BB695A68BB695B8951
:103A900010461946FFF78EFF0346FA691344FB618F
:103AA000FB691A0CFB699BB21344FB61BB695B8920
:103AB00003F001039BB2002B0CD0FB7DC3F101038B
:103AC000FB75FB691B029AB2FB6903F47F431B0A77
:103AD0001343FB61BB691B68BB61BB69002BD3D17E
:103AE000FB7D002B08D0FB691B029AB2FB6903F433
:103AF0007F431B0A1343FB61BB681B683B613B6947
:103B00009BB2FA691344FB613B691B0CFA691344CD
:103B1000FB617B681B683B613B699BB2FA6913449C
:103B2000FB613B691B0CFA691344FB61FB789BB298
:103B3000184601F0B7F80346FA691344FB613B8D60
:103B4000184601F0AFF80346FA691344FB61FB69BC
:103B50001A0CFB699BB21344FB61FB691A0CFB69ED
:103B60009BB21344FB61FB699BB2DB439BB21846DB
:103B70002037BD4680BD00BF80B582B000AF786001
:103B80000B467B807B8878681946FFF713FF034656
:103B9000DB439BB218460837BD4680BD80B586B072
:103BA00000AF786000237B610023FB737B683B617F
:103BB00028E03B695A683B695B8910461946FFF764
:103BC000F9FE03467A6913447B617B691A0C7B69B1
:103BD0009BB213447B613B695B8903F001039BB299
:103BE000002B0CD0FB7BC3F10103FB737B691B0231
:103BF0009AB27B6903F47F431B0A13437B613B69E1
:103C00001B683B613B69002BD3D1FB7B002B08D0A9
:103C10007B691B029AB27B6903F47F431B0A13433F
:103C20007B617B699BB2DB439BB218461837BD466C
:103C300080BD00BF80B485B000AF7860194B1B68B1
:103C4000FB6015E0FB6893F82D3003F00103002BB7
:103C50000BD07B681A68FB685B685A40FB689B68FE
:103C60001340002B01D1FB6815E0FB681B68FB606B
:103C7000FB68002BE6D10C4B1B68002B07D00A4BCE
:103C80001B6893F82D3003F00103002B01D10023B2
:103C900001E0054B1B6818461437BD465DF8047BF0
:103CA000704700BF7802FF1F7C02FF1F80B58AB0FB
:103CB00000AF786039600123FB61914B7B617B68C9
:103CC0005B687B627B6A1B781B09DBB2042B04D028
:103CD000786803F07DF900230CE17B6A1B7803F020
:103CE0000F037B827B8A9B007B827B6A5B889BB213
:103CF000184600F0EDFF03463B827B685B897A8AB9
:103D00009A4204D87B681B893A8A9A4204D9786817
:103D100003F05EF90023EDE07B8A786A1946FFF72D
:103D20002BFF0346002B04D0786803F051F90023E1
:103D3000E0E03B8A7868194603F03AF87B6A1A6932
:103D4000704B1A607B6ADA686D4B1A600123BB61A5
:103D50003B683B623B6A93F82D3003F00103002B74
:103D600017D03B6A0433002B13D03B6A5B68002BEF
:103D70000FD0644B1A683B6A5B689A4208D0614B6B
:103D80001B681846396A00F0D5F90346002B00D0AD
:103D900015E0BB69002B05D00023BB615A4B1B68A3
:103DA0003B6202E03B6A1B683B623A6A3B689A42AC
:103DB00002D13B6A1B683B623B6A002BCAD13B6A5B
:103DC000002B11D17B6A5B7A112B0DD17B8A7A6A29
:103DD0001344FB60FB685B889BB2B3F5884F03D14B
:103DE0003B683B620023FB61FB69002B1AD07B69B7
:103DF000002B17D07B691B68002B13D0404B1B682E
:103E00001846396800F096F90346002B05D13C4B63
:103E10001B6803F0F003E02B04D1786803F0D8F8B6
:103E2000002367E03B6A002B04D1786803F0D0F8E8
:103E300000235FE07B6ADB889BB21A464FF63F7334
:103E40001340002B0BD0786800F0C6FC78607B68CC
:103E5000002B01D100234DE07B685B687B622B4B1C
:103E60003A681A602A4B7A6A1A607868396803F0EF
:103E7000C9FA0346002B30D17B6A5B7A062B09D046
:103E8000112B02D0012B0AD00EE07868396807F0B8
:103E900007FD22E07868396804F060FD1DE078686D
:103EA0003968FFF7E3FB18E0164B1B6818463968C2
:103EB00000F040F90346002B0CD1124B1B6803F0B5
:103EC000F003E02B06D07B687A6A5A60786802219A
:103ED000FFF7F0FC786803F07BF80C4B00221A60C7
:103EE0000B4B00221A60064B00221A60054B002281
:103EF0001A6000235BB218462837BD4680BD00BF5C
:103F0000D001FF1FD401FF1F7802FF1FC801FF1F50
:103F1000CC01FF1F80B588B000AFF860B9607A604F
:103F2000FB700023FB61FB68DB89012B02D0674833
:103F300009F0BEFB7B68002B00F0A28014237B837A
:103F4000F868142102F0C4FF0346002B01D0FE23C1
:103F5000B7E0FB685B687B61FB685B89132B02D869
:103F60005B4809F0A5FB7B69FA781A727B6997F8C0
:103F70002C205A7297F82C301A02FB781343FA69F6
:103F80001344FB617B681A687B691A617B691B6952
:103F90009BB2FA691344FB617B691B691B0CFA69CC
:103FA0001344FB617B8B9B089BB2DBB243F0400365
:103FB000DAB27B691A707B6997F828205A7097F8F3
:103FC00028301A027B691B781343FA691344FB619A
:103FD000FB681B89184600F065FE03461A467B699C
:103FE0005A807B695B889BB2FA691344FB617B69E9
:103FF00000229A710022DA71364B1B88184600F0B5
:1040000051FE03461A467B699A807B699B889BB266
:10401000FA691344FB612F4B1B8801339AB22D4B75
:104020001A80BB68002B03D0BB681B68002B04D12F
:104030003B6B5A687B69DA6003E0BB681A687B698E
:10404000DA607B69DB689BB2FA691344FB617B69C8
:10405000DB681B0CFA691344FB61FB691A0CFB69F2
:104060009BB21344FB61FB691B0CFA691344FB61AF
:10407000FB69DB43FB61FB699AB27B695A8108E00B
:10408000FB685B687B617B691B693B6107F110031F
:104090007B603B6B9B8C002B0CD0FB681A893B6BC5
:1040A0009B8C9A4206D9F868396B7A6800F0F4FC68
:1040B000034606E03B6B5B69386BF9687A689847A2
:1040C00003465BB218462037BD4680BDC84C010090
:1040D000D44C0100D801FF1F80B58AB004AFF8604E
:1040E000B9607A60FB70FB68DB89012B02D0104855
:1040F00009F0DEFA7868FFF79DFD78617B69002B97
:1041000001D1FC230EE0FB7897F82020009297F86D
:10411000242001927A690292F868B9687A68FFF7F8
:10412000F9FE03465BB218461837BD4680BD00BF96
:10413000C84C010080B485B000AF786039607B68FE
:10414000FB607B68B3F1FF3F02D07B68002B01D19D
:10415000012325E03B6893F82D3003F00203002B88
:1041600001D100231CE03B685A687B689A4201D168
:10417000002315E0FA683B685B685A403B689B681F
:104180001340002B0BD13B689B68DA437B681A40D5
:104190003B689B68DB439A4201D1012300E0002386
:1041A00018461437BD465DF8047B704780B582B071
:1041B00000AF786078680449102200F007F80346E1
:1041C00018460837BD4680BDDC01FF1F80B48DB0A6
:1041D00000AFF860B9607A6000233B62FB681B683F
:1041E000BB61BB68FB6207F11803BB62002387F861
:1041F000273059E0002387F82630BB6A1A78334B02
:10420000A3FB0213D9080B469B000B445B00D31A97
:10421000FB77BB6A1A782D4BA3FB0213DB08DAB2DB
:10422000BB6A1A7097F826305A1C87F82620FA7F46
:104230003032D2B2D2B207F130010B4403F81C2C59
:10424000BB6A1B78002BD8D112E03B6A5A1C3A6239
:104250007A68934201DB002331E0FB6A5A1CFA6260
:1042600097F8262007F130010A4412F81C2C1A7026
:1042700097F826305A1E87F82620002BE5D13B6A96
:104280005A1C3A627A68934201DB002317E0FB6A0A
:104290005A1CFA622E221A70BB6A0133BB6297F86D
:1042A0002730013387F8273097F82730032BA1D91F
:1042B000FB6A013BFB62FB6A00221A70BB6818466E
:1042C0003437BD465DF8047B704700BFCDCCCCCC05
:1042D00080B588B000AF786039600023FB833A680E
:1042E0007B689A4202D13F4809F0E2F93B68002B13
:1042F00007D03B681A687B689A4202D03A4809F0B6
:10430000D7F97B685B685B687B617B699B889BB244
:10431000002B29D17B685B68BB617B691A687B686D
:104320005A60BB695A687B680833104619461422E4
:104330000FF0AFFBB8690121FFF7CCFAB86902F0C2
:10434000C7FE0346FB74FA8BFB7C1344B3F5803F36
:1043500002DB264809F0ACF9FB7C9AB2FB8B1344D4
:10436000FB83B86902F034FE7B685B68BB611DE0CB
:10437000BB695B687B61BB69FB607B691B68BB6178
:10438000F86802F0A5FE0346FB74FA8BFB7C13442D
:10439000B3F5803F02DB154809F08AF9FB7C9AB23D
:1043A000FB8B1344FB83F86802F012FEBB69002B01
:1043B000DED17868396800F0B5F80D4B1B88FA8BB0
:1043C0009A4202D90B4809F073F9094B1A88FB8B02
:1043D000D31A9AB2064B1A80FB8B18462037BD467B
:1043E00080BD00BF044D0100104D0100244D0100AF
:1043F000F001FF1F444D010080B588B000AF786028
:10440000396000233B610023BB6100237B610023F3
:10441000FB60264B1B68FB612CE0FB695A697B68DB
:10442000DB689A420CD1FB699A697B681B699A42E6
:1044300006D1FB699A897B689B889BB29A4210D00F
:10444000FB680133FB60BB69002B02D1FB69BB61D8
:1044500007E0FB69DA7FBB69DB7F9A4201D8FB6921
:10446000BB61FB691B68002B01D0FB697B61FB69A9
:104470001B68FB61FB69002BCFD1BB69002B08D007
:10448000B8697969FFF724FFB8603A69BB681344DB
:104490003B613A693B689A4202DAFB68012BB2DC65
:1044A0003B6918462037BD4680BD00BFEC01FF1FA9
:1044B00080B584B000AF78603960052002F02EF935
:1044C000F860FB68002B10D178683968FFF794FF1B
:1044D00002463B689A4203DB052002F01FF9F860B0
:1044E000FB68002B01D1002316E0F8680021202290
:1044F0000FF0D8FAFB680322DA77094B1A68FB68D9
:104500001A60074BFA681A60FB6808331846796826
:1045100014220FF0BEFAFB6818461037BD4680BD66
:10452000EC01FF1F80B582B000AF786039600D4BA1
:104530001A687B689A4204D17B681A68094B1A6032
:1045400009E03B68002B02D1074809F0B1F87B680D
:104550001A683B681A600520796802F00DF908377F
:10456000BD4680BDEC01FF1F604D010090B58BB0D2
:1045700000AF7860396000233B620123BB613B6878
:104580005B687B617B695B889BB2184600F0A0FB8F
:1045900003461A467B691B7803F00F039BB219464A
:1045A0008903CB1A9B009BB213447B827B69DB8817
:1045B0009BB2184600F08CFB0346C3F30C039BB27E
:1045C000DB003B823B685B687B627B6A00221A707F
:1045D00000225A7000229A700022DA707B6A3A8AAE
:1045E0009A803A8A7B8A13449AB27B6ADA807B6823
:1045F0005B68FB614EE0FB695B68FB607B6A9B88E4
:104600009AB2FB689B889BB29A421FD27B6AFA6976
:104610001A603B6A002B15D07B6A9B889AB23B6A72
:10462000DB889BB29A42C0F0B8807B6ADB889AB282
:10463000FB689B889BB29A4200F2AF803B6A3A6863
:104640001A602AE07B683A685A6026E07B6A9B8899
:104650009AB2FB689B889BB29A4200D19DE07B6A2C
:104660009B889AB2FB68DB889BB29A4200D294E0A6
:104670003B6A002B09D03B6ADB889AB2FB689B88B7
:104680009BB29A4201D00023BB61FB681B68FB61AF
:10469000FB683B62FB69002BADD1FB69002B25D188
:1046A0003B6A002B18D03B6ADB889AB27B6A9B88F6
:1046B0009BB29A4202D9424808F0FAFF3B6A3A6834
:1046C0001A603B6ADB889AB27B6A9B889BB29A42EB
:1046D0000CD00023BB6109E07B685B68002B02D033
:1046E000384808F0E5FF7B683A685A607B689B7F32
:1046F00003F00103002B4ED0BB69002B49D07B682F
:104700005B685B689B889BB2002B02D00023BB6177
:104710003FE07B6A3B627B6A1B68FB6112E0FB69DE
:104720005B687B623B6ADB889AB27B6A9B889BB240
:104730009A4202D00023BB6107E07B6A3B627B6A3E
:104740001B68FB61FB69002BE9D1BB69002B20D002
:104750007B685B68002B02D11B4808F0A9FF7B68CF
:104760005B685A687B6A9A4202D1174808F0A0FF3A
:104770007B6A1B68002B02D0144808F099FF7B6A03
:10478000DB889AB27B689B8B9A4202D0104808F073
:104790008FFFBB690FE000230DE00E4B1C883868CB
:1047A00002F096FC0346E31A9AB20A4B1A80386864
:1047B00002F00EFC002318462C37BD4690BD00BF0A
:1047C0007C4D01009C4D0100D44D0100E44D0100E1
:1047D000084E0100F001FF1F90B58BB000AF78606C
:1047E0000023FB617B685B68BB61BB691B7803F0DE
:1047F0000F039B00142B00D000E1BB69DB889BB248
:10480000184600F065FA0346C3F30C039BB2DB00C5
:10481000FB82BB695B889BB2184600F059FA0346DD
:104820001A46BB691B7803F00F039BB21946890334
:10483000CB1A9B009BB21344BB82786802F048FC01
:104840000346FB74714B1B881A46FB7C13440A2BEE
:104850000FDDFB7CB8691946FFF7CEFD0346002B40
:1048600006D06A4B1B881A46FB7C13440A2B00DDDA
:10487000C4E0674B1B683B6218E03B6A5A69BB693E
:10488000DB689A420DD13B6A9A69BB691B699A42FF
:1048900007D13B6A9A89BB699B889BB29A4200D137
:1048A00007E03B6AFB613B6A1B683B623B6A002B8B
:1048B000E3D13B6A002B09D1FB7CB8691946FFF7AD
:1048C000F7FD38623B6A002B1CD197E0BB69DB889F
:1048D0009BB2184600F0FCF90346C3F30C03002B0F
:1048E00010D13B6ADB89184600F0F2F90346C3F3A6
:1048F0000C03002B06D03B6A08331846B969142212
:104900000FF0C7F8FB7C9AB2404B1B8813449AB255
:104910003E4B1A80BB69DB889BB203F02003002B5F
:104920000CD13B6A9B7F43F00103DAB23B6A9A7772
:10493000FA8ABB8A13449AB23B6A9A83386A7968C6
:10494000FFF714FE0346002B56D03B6A9B8B1433B3
:104950009AB23B6A9A833B6A5B685B681B687B62BE
:104960003B6A5B685B68BB613B6A0833B8691946A0
:1049700014220FF08EF83B6A9B8B184600F092F9D8
:1049800003461A46BB695A80BB6900229A7100220D
:10499000DA71BB6900229A720022DA72B8691421B6
:1049A000FFF7EAF803461A46BB695A813B6A5B681F
:1049B0007B600EE07B6A5B68FB60786A6FF01301D6
:1049C00002F086FA7868796A02F0ACFBFB681B6833
:1049D0007B627B6A002BEDD1386AF969FFF7A2FD93
:1049E0000A4B1C88786802F073FB0346E31A9AB2FC
:1049F000064B1A807B6805E0002303E0786802F02C
:104A0000E7FA002318462C37BD4690BDF001FF1F82
:104A1000EC01FF1F80B500AF062001F07FFE0346CA
:104A2000184680BD80B582B000AF78607B68002BEF
:104A300002D1054808F03CFE0620796801F09CFE92
:104A40000837BD4680BD00BF384E010080B584B038
:104A500000AF78607B68FB60FB68002B02D10C48DC
:104A600008F026FEFA687B689A4202D0094808F0EE
:104A70001FFEFB685B69002B04D0FB685B6918466E
:104A800002F0A6FAF868FFF7CDFF1037BD4680BDEB
:104A9000444E0100504E010080B592B002AFF86064
:104AA000B9607A60BB689B8C7B8614237B8700236C
:104AB000FB86FB685B68FB62FB6ABB62BB6ADB88E8
:104AC0009BB2184600F004F903463B873B8FC3F3C3
:104AD0000C03BB873B8F03F40053FB84FB681B89EB
:104AE000143BFB877B8E143B002B00DA0733DB1073
:104AF000BB84C8E0FA8F7B8E143B9A42CCBF002364
:104B00000123DBB27B84BB8FC3F30C039AB2FB8C13
:104B100013433B877B8C002B03D13B8F43F4005323
:104B20003B877B8C002B03D1BB8CDB009BB200E06E
:104B3000FB8F3B8402201421002201F081FFF861E9
:104B4000FB69002B01D1FF23A2E0FB685B89132BDB
:104B500002D8524808F0ACFDFB695B681846F96A58
:104B600014220EF096FFFB695B68BB62FB685A6813
:104B70007B8F1A44FB685A60FB685A897B8FD31A73
:104B80009AB2FB685A813B8CBB8647E0FB685A8926
:104B9000BB8E9A4238BF1346FB86FB8E002B03D197
:104BA000FB681B68FB6039E0FFF734FFB861BB6945
:104BB000002B04D1F86902F00BFAFF2368E0BB690F
:104BC000FA685168FA8E0091F98E0191032011461E
:104BD000022202F08FF878617B69002B07D1B86957
:104BE000FFF720FFF86902F0F3F9FF2350E0F868BF
:104BF00002F086FABB69FA685A61BB69284A1A61F1
:104C0000F869796902F08EFABA8EFB8ED31ABB86E8
:104C1000BB8E002B02D0FB681B68FB60BB8E002B99
:104C2000B4D1FB8E7B873B8F184600F03BF80346E0
:104C30001A46BB6ADA803B8C14339BB2184600F0EC
:104C400031F803461A46BB6A5A80BB6A00229A7240
:104C50000022DA72B86A1421FEF78EFF03461A4664
:104C6000BB6A5A81BB685B69B868F9697A6898471A
:104C7000F86902F0ADF9FA8F3B8CD31AFB87BA8F33
:104C8000BB8C1344BB87FB8F002B7FF433AF002317
:104C90005BB218464037BD4680BD00BF5C4E010088
:104CA0004D4A000080B483B000AF0346FB80FB8810
:104CB0001B029AB2FB881B0A9BB29BB213439BB2A6
:104CC0009BB218460C37BD465DF8047B704700BFA9
:104CD00080B582B000AF0346FB80FB881846FFF723
:104CE000E1FF034618460837BD4680BD80B483B057
:104CF00000AF78607B681A067B6803F47F431B0271
:104D00001A437B6803F47F031B0A1A437B681B0E5C
:104D1000134318460C37BD465DF8047B704700BF4F
:104D200080B582B000AF78607868FFF7DFFF034698
:104D300018460837BD4680BD80B584B000AF7860A6
:104D40007B681B6AFB60786801F058FE78680A4946
:104D500001F09AFD7868084901F0EEFD786806498F
:104D600001F0FEFDF8680C2100F0EEFB786800F021
:104D700079FA1037BD4680BD1072010080B584B04D
:104D800000AF78607B681B6AFB60F868082100F060
:104D9000DBFBFB682433786819460022FEF7FEF936
:104DA0000346FB72FB685B7B0133DAB2FB685A7324
:104DB0004FF4FA733B813B8903F2F313054A82FBFC
:104DC00003125211DB17D31A9AB2FB685A831037B9
:104DD000BD4680BDD34D621080B584B000AF786011
:104DE0007B681B6AFB600B4B9B78002B0FD00A4B38
:104DF0009B681846FFF77AFF0246FB681A62FB6859
:104E00009B681A69FB685A62786800F007F81037E7
:104E1000BD4680BD1C02FF1FF401FF1F80B586B098
:104E200002AF78607B681B6AFB60F868012100F0C4
:104E30008BFB7868F968032200F06EFF0346FB7273
:104E400097F90B30002B59D1F8683921022200F074
:104E500095FB7B689B8CF868194600F0DDFBF868D1
:104E60003221042200F08AFBFB685B6A1846FFF7D8
:104E700057FF0346F868194600F0FEFBF868362134
:104E8000042200F07BFBFB681B6A1846FFF748FF13
:104E90000346F868194600F0EFFBF8683721042252
:104EA00000F06CFBF868012100F098FBF868032122
:104EB00000F094FBF8681C2100F090FBF8680621D4
:104EC00000F08CFBF86801F08FF8FB681A69FB684A
:104ED0001B8BF0339BB21046194601F069FFFB684B
:104EE0005A68FB681B697968009110461946174A91
:104EF000432306F035FEF86801F044F8FB685B7B5D
:104F00000133DAB2FB685A73FB685B7B052B07D869
:104F1000FB685B7B4FF47A7202FA03F39BB201E009
:104F20004EF660233B813B8903F2F313084A82FB70
:104F300003125211DB17D31A9AB2FB685A83FB7A19
:104F40005BB218461037BD4680BD00BF1472010029
:104F5000D34D621080B584B000AF78607B681B6A67
:104F6000FB60FB6800229A62FB680022DA62254B34
:104F7000DB78002B03D0244BDA68FB681A63214BE3
:104F80001B79002B04D0204B1A69FB685A6304E09C
:104F9000FB681B6B5A08FB685A631A4B5B79002B42
:104FA00004D0194B5A69FB689A6303E0FB681A6BDB
:104FB000FB689A63FB689B681A69FB685A62114B2D
:104FC0009B79002B0BD0104B9B691846FFF78EFE88
:104FD0000246FB689A62FB6801229A7302E0FB6852
:104FE00000229A73074BDB79002B07D0064BDB6955
:104FF0001846FFF77BFE0246FB68DA621037BD46B3
:1050000080BD00BF1C02FF1FF401FF1F80B584B0EC
:1050100000AF78600023FB727B68002B04D1494805
:1050200008F046FBF22388E07B681B6AFB607B6824
:1050300093F82D3023F00803DAB27B6883F82D2033
:105040007B6893F82D3003F02003002B01D1F2236D
:1050500073E07B689B8CB3F5107F01D2FF236CE07B
:10506000FB68002B0CD13C2001F076FAF860FB685D
:10507000002B01D1FF2360E07B68FA681A6216E01A
:10508000FB685B68002B04D0FB685B68184606F081
:10509000E9FEFB681B69002B02D02B4808F008FBD7
:1050A000FB689B68002B02D0284808F001FBF868D9
:1050B00000213C220EF0F6FC06F004FF0246FB68DD
:1050C0005A60FB685B68002B01D1FF2335E0FB6869
:1050D0005B68FA685268127A42F02002D2B21A7201
:1050E000FB685B6818461A49442206F0F3FDFB682A
:1050F0005B6818461649432206F054FEFB685B685D
:10510000184614497A6806F09BFE786800F0AAF801
:105110000346FB7297F90B30002B04D0786800F03F
:10512000DBF9FF2309E07B6893F82D3043F0080397
:10513000DAB27B6883F82D20FB7A5BB21846103711
:10514000BD4680BD7C4E0100C04E0100D84E01001E
:1051500010720100C55B000080B582B000AF7860BE
:1051600039607B68002B03D10C4808F0A1FA12E0EB
:105170007B681B6A002B0ED07B681B6A1B7B082B8D
:1051800009D13B681A687B681B6A5B6A9A4202D144
:10519000786800F005F80837BD4680BD7C4E0100F8
:1051A00080B586B002AF78607B681B6AFB60002325
:1051B000FB72F8680C2100F0C7F97868F9680422DE
:1051C00000F0AAFD0346FB7297F90B30002B2AD1A1
:1051D000F8683221042200F0D1F9FB685B6A1846B6
:1051E000FFF79EFD0346F868194600F045FAF86897
:1051F00000F0FAFEFB681A69FB681B8BF0339BB268
:105200001046194601F0D4FDFB685A68FB681B691B
:105210007968009110461946104A432306F0A0FC15
:10522000F86800F0AFFEFB685B7B0133DAB2FB6825
:105230005A7342F210733B813B8903F2F313084A1D
:1052400082FB03125211DB17D31A9AB2FB685A83FE
:10525000FB7A5BB218461037BD4680BD1472010060
:10526000D34D621080B586B002AF78607B681B6A50
:10527000FB600023FB72FB6800225A62F86806217B
:1052800000F062F97868F968012200F045FD0346F4
:10529000FB7297F90B30002B3BD1F86839210222C1
:1052A00000F06CF97B689B8CF868194600F0B4F943
:1052B000F8683721042200F061F9F868012100F054
:1052C0008DF9F868032100F089F9F8681C2100F0D5
:1052D00085F9F868062100F081F9F86800F084FE8D
:1052E000FB681A69FB681B8BF0339BB210461946AA
:1052F00001F05EFDFB685A68FB681B6979680091E4
:1053000010461946164A432306F02AFCF86800F0B6
:1053100039FEFB685B7B0133DAB2FB685A73FB68CA
:105320005B7B052B07D8FB685B7B4FF47A7202FA34
:1053300003F39BB201E04EF660233B813B8903F20D
:10534000F313084A82FB03125211DB17D31A9AB2E5
:10535000FB685A83FB7A5BB218461037BD4680BDA6
:1053600014720100D34D621080B588B000AF786030
:105370007B68002B03D1554808F09AF9A2E07B68BE
:105380001B6ABB61BB69002B03D1514808F090F93F
:1053900098E0BB695B6BB3F1FF3F1AD0BB695B6BF5
:1053A00003F11E024B4BA3FB02135B09FB61FB697C
:1053B000B3F5803F02D34FF6FF73FB61FB699AB2EE
:1053C000BB699A83BB699B8B002B02D1BB6901220D
:1053D0009A83BB699B6BB3F1FF3F1AD0BB699B6B90
:1053E00003F11E023B4BA3FB02135B09FB61FB694C
:1053F000B3F5803F02D34FF6FF73FB61FB699AB2AE
:10540000BB69DA83BB69DB8B002B02D1BB6901224C
:10541000DA83BB699A8BBB69DB8B9A4206D3BB6983
:10542000DB8B002B02D0BB6900229A83BB699B7B7C
:10543000002B03D0BB699B6AFB6014E0BB6924337B
:105440001B78FB75FB7D5BB2002B02DBFF23FB604F
:1054500009E0FB7DBF2B03D96FF07F43FB6002E0C7
:105460004FF6FF73FB60BB69DB6ABB6007F10803A3
:105470003B613B69002B03D03B691B68002B08D1C3
:10548000BB695A6AFB681340BB60BB6843F080731A
:10549000BB60BB6924337868194601F0F5F907F160
:1054A0000C037868194601F05BFA07F10803786885
:1054B000194601F041FA786801F074FAB8690A21D6
:1054C00000F042F82037BD4680BD00BFEC4E010021
:1054D000084F01008988888880B584B000AF786063
:1054E0007B68002B03D1164808F0E2F825E07B68C2
:1054F0001B6AFB607B6893F82D3023F00803DAB257
:105500007B6883F82D20FB68002B16D0FB685B6856
:10551000002B07D0FB685B68184606F0A3FCFB680D
:1055200000225A60FB689B68002B02D0054808F0F7
:10553000BFF8F868002100F007F81037BD4680BDBD
:10554000204F0100D84E010080B483B000AF7860D6
:105550000B46FB707B681B7BFA789A4208D07B680D
:10556000FA781A737B6800225A737B6800225A8388
:105570000C37BD465DF8047B704700BF80B582B034
:1055800000AF786013460A46FA70BB707B681B8BCD
:105590001A46BB7813440233442B02D90E4808F054
:1055A00087F87B685A697B681B8B591C88B27968BD
:1055B00008831344FA7883F8F0207B685A697B6883
:1055C0001B8B591C88B2796808831344BA7883F816
:1055D000F0200837BD4680BD3C4F010080B582B049
:1055E00000AF78600B46FB707B681B8B432B02D9A6
:1055F000084808F05DF87B685A697B681B8B591C6A
:1056000088B2796808831344FA7883F8F020083761
:10561000BD4680BD844F010080B582B000AF786088
:105620000B467B807B681B8B0233442B02D91148CD
:1056300008F03EF87B6859697B681B8B5A1C90B256
:105640007A6810837A88120A92B2D2B20B4483F835
:10565000F0207B6859697B681B8B5A1C90B27A6872
:1056600010837A88D2B20B4483F8F0200837BD4605
:1056700080BD00BFC04F010080B582B000AF786030
:1056800039607B681B8B0433442B02D9204808F017
:105690000FF87B6859697B681B8B5A1C90B27A683B
:1056A00010833A68120ED2B20B4483F8F0207B6864
:1056B00059697B681B8B5A1C90B27A6810833A68D0
:1056C00002F47F02120CD2B20B4483F8F0207B6804
:1056D00059697B681B8B5A1C90B27A6810833A68B0
:1056E00002F47F42120AD2B20B4483F8F0207B68A6
:1056F00059697B681B8B5A1C90B27A6810833A6890
:10570000D2B20B4483F8F0200837BD4680BD00BFFD
:105710000450010080B58EB000AF7860396000237E
:105720007B6200233B62AF4800210A220EF0BAF9E7
:105730003B685B892B2B01D8FE2332E23B685A6819
:105740007B689A60F023FB853B681B89BB853B68BF
:10575000BB620CE0BB6A5B89FA8DD31AFB85BB6A1E
:105760005B89BA8DD31ABB85BB6A1B68BB62BB6AF7
:10577000002B04D0BB6A5B89FA8D9A42EAD2BB6ADD
:10578000002B01D1FE230CE2FB8D7B86BB8D3B867B
:10579000BB6A5B687B63C4E17B8E7A6B13441B78C6
:1057A0007B750023BB774FF0FF33BB617B8E0233E9
:1057B000FB827B8E5A1CBB6A5B899A4206DA7B8E1F
:1057C00001337A6B13441B78FB770AE0BB6A1B68D2
:1057D000002B04D0BB6A1B685B681B7800E00023C9
:1057E000FB77FB7FBB777B7D3B2B00F2058101A222
:1057F00052F823F0E5580000F5580000F959000070
:105800000B590000F9590000F95900002759000010
:10581000F9590000F9590000F9590000F959000040
:10582000F9590000F9590000F9590000F959000030
:10583000F9590000F9590000F9590000F959000020
:10584000F9590000F9590000F9590000F959000010
:10585000F9590000F9590000F9590000F959000000
:10586000F9590000F9590000F9590000F9590000F0
:10587000F9590000F9590000F9590000F9590000E0
:10588000F9590000F9590000F9590000F9590000D0
:10589000F9590000F9590000F9590000F9590000C0
:1058A000F9590000F9590000F9590000F9590000B0
:1058B000F9590000F9590000F9590000F9590000A0
:1058C0005F590000755900008B590000A159000074
:1058D000F9590000F9590000F9590000B7590000C2
:1058E000CD5900000023FB77FB7FBB777B8E013B0C
:1058F0007B8684E0FB7F042B04D03B4807F0D8FE76
:10590000FA234EE10623BB6179E00423BB77FA7FDB
:10591000BB7F9A4204D2354807F0CAFEFA2340E121
:105920000723BB616BE0FB7F03F00303DBB2002BBB
:1059300004D02F4807F0BCFEFA2332E1FB7F082B8E
:1059400028BF0823BB77FA7FBB7F9A4204D227483F
:1059500007F0AEFEFA2324E10823BB614FE0FB7F92
:10596000042B04D0204807F0A3FEFA2319E10323F7
:10597000BB6144E0FB7F012B04D01E4807F098FE7A
:10598000FA230EE10023BB6139E0FB7F012B04D039
:10599000184807F08DFEFA2303E10123BB612EE0D6
:1059A000FB7F042B04D0104807F082FEFA23F8E0B6
:1059B0000223BB6123E0FB7F042B04D00A4807F0DD
:1059C00077FEFA23EDE00423BB6118E0FB7F042B94
:1059D00004D0054807F06CFEFA23E2E00523BB6122
:1059E0000DE000BF1C02FF1F445001005050010099
:1059F00064500100745001000023BB7700BFFB7F9F
:105A00009AB27B8E13449BB202337B86BB7F002B02
:105A100065D00023BB60BB69002B02DBBB69092B8F
:105A200002DD624807F044FE614ABB6913441B78FB
:105A3000002B54D1BB7F032B02D8BB7F9BB200E06D
:105A400004237B8207F108017A8AFB8AB86A01F095
:105A50006DFCBB7F042B22D9BB7F03F00303DBB2B9
:105A6000002B04D0534807F023FEFA2399E0504A54
:105A7000BB69134401221A70BB681846FFF736F958
:105A800001464D4BBA6943F82210BB7F043BBB77FC
:105A9000FB8A0433FB82BB690133BB61BBE7BB7F7D
:105AA000042B06D1BB681846FFF73AF90346BB60E2
:105AB0000BE0BB7F012B04D0404807F0F9FDFA232F
:105AC0006FE007F108031B78BB60394ABB691344D8
:105AD00001221A70B968384BBA6943F82210BB6AC0
:105AE0005B897A8E9A421CD3BB6A5B897A8ED31A01
:105AF0007B86BB6A5B893A8ED31A3B867A8E3B8E55
:105B00009A421CD23B8E002B19D0BB6A1B68BB6229
:105B1000BB6A002B02D12A4807F0CAFDBB6A5B684A
:105B20007B63BB6A002B0AD07B8E7A6B13441B7895
:105B3000FF2B04D07A8E3B8E9A42FFF42DAE1C4B85
:105B40001B78002B18D01C4B1B68FB60184B0022E5
:105B50001A70FB68012B02D101237B620CE0FB6809
:105B6000022B02D101233B6206E0FB68032B03D129
:105B700001233B6201237B627B6A002B06D000235A
:105B80007B626C23FB85EC23BB85E0E53B6A002B45
:105B900006D000233B622C23FB856C23BB85D6E516
:105BA00000235BB218463837BD4680BD80500100E7
:105BB0001C02FF1F94500100F401FF1FA8500100B8
:105BC000BC50010080B58AB000AFF860B9607A605F
:105BD0003B60FB683B623B6A1B6AFB617B685B68FE
:105BE000BB61FB699B68002B02D0484807F060FD51
:105BF0007B685B892B2B00D87FE0BB691B78022B6D
:105C000000D07AE0002387F8273012E097F8273099
:105C10003A6A134493F8272097F82730B9690B4460
:105C20001B7F9A4200D068E097F82730013387F84D
:105C300027303B6A93F8263097F827209A42E5D31D
:105C4000BB695B681846FFF76BF80246FB691B6887
:105C50009A4200D051E0F8697968FFF75BFD03468E
:105C6000002B00D049E02A4B5B78002B00D144E0A8
:105C7000284B5B68FB75FB7D052B1AD1FB691B7BF1
:105C8000012B06D1386AFFF765F9386AFFF776F815
:105C900033E0FB691B7B032B07D0FB691B7B042BC9
:105CA00003D0FB691B7B052B27D1386AFFF75CFB10
:105CB00023E0FB7D062B13D1FB691B7B032B0BD051
:105CC000FB691B7B012B07D0FB691B7B042B03D0DB
:105CD000FB691B7B052B03D1386AFFF72DF80CE01D
:105CE000FB7D022B09D1FB691B7B062B05D1FB69D0
